{
  "contractName": "Casino",
  "abi": [
    {
      "constant": true,
      "inputs": [],
      "name": "numberOfBets",
      "outputs": [
        {
          "name": "",
          "type": "uint256"
        }
      ],
      "payable": false,
      "stateMutability": "view",
      "type": "function"
    },
    {
      "constant": true,
      "inputs": [],
      "name": "maxBet",
      "outputs": [
        {
          "name": "",
          "type": "uint256"
        }
      ],
      "payable": false,
      "stateMutability": "view",
      "type": "function"
    },
    {
      "constant": true,
      "inputs": [
        {
          "name": "",
          "type": "address"
        }
      ],
      "name": "playerInfo",
      "outputs": [
        {
          "name": "amountBet",
          "type": "uint256"
        },
        {
          "name": "numberSelected",
          "type": "uint256"
        }
      ],
      "payable": false,
      "stateMutability": "view",
      "type": "function"
    },
    {
      "constant": true,
      "inputs": [],
      "name": "owner",
      "outputs": [
        {
          "name": "",
          "type": "address"
        }
      ],
      "payable": false,
      "stateMutability": "view",
      "type": "function"
    },
    {
      "constant": true,
      "inputs": [],
      "name": "minBet",
      "outputs": [
        {
          "name": "",
          "type": "uint256"
        }
      ],
      "payable": false,
      "stateMutability": "view",
      "type": "function"
    },
    {
      "constant": true,
      "inputs": [
        {
          "name": "",
          "type": "uint256"
        }
      ],
      "name": "players",
      "outputs": [
        {
          "name": "",
          "type": "address"
        }
      ],
      "payable": false,
      "stateMutability": "view",
      "type": "function"
    },
    {
      "constant": true,
      "inputs": [],
      "name": "totalBet",
      "outputs": [
        {
          "name": "",
          "type": "uint256"
        }
      ],
      "payable": false,
      "stateMutability": "view",
      "type": "function"
    },
    {
      "inputs": [
        {
          "name": "_minBet",
          "type": "uint256"
        }
      ],
      "payable": false,
      "stateMutability": "nonpayable",
      "type": "constructor"
    },
    {
      "payable": true,
      "stateMutability": "payable",
      "type": "fallback"
    },
    {
      "constant": false,
      "inputs": [],
      "name": "kill",
      "outputs": [],
      "payable": false,
      "stateMutability": "nonpayable",
      "type": "function"
    },
    {
      "constant": true,
      "inputs": [
        {
          "name": "player",
          "type": "address"
        }
      ],
      "name": "checkPlayer",
      "outputs": [
        {
          "name": "",
          "type": "bool"
        }
      ],
      "payable": false,
      "stateMutability": "view",
      "type": "function"
    },
    {
      "constant": false,
      "inputs": [],
      "name": "resetData",
      "outputs": [],
      "payable": false,
      "stateMutability": "nonpayable",
      "type": "function"
    },
    {
      "constant": false,
      "inputs": [
        {
          "name": "numberSelected",
          "type": "uint256"
        }
      ],
      "name": "bet",
      "outputs": [],
      "payable": true,
      "stateMutability": "payable",
      "type": "function"
    },
    {
      "constant": false,
      "inputs": [],
      "name": "generateNumberWinner",
      "outputs": [],
      "payable": false,
      "stateMutability": "nonpayable",
      "type": "function"
    },
    {
      "constant": false,
      "inputs": [
        {
          "name": "numberWinner",
          "type": "uint256"
        }
      ],
      "name": "distributePrizes",
      "outputs": [],
      "payable": false,
      "stateMutability": "nonpayable",
      "type": "function"
    }
  ],
  "bytecode": "0x6080604052606460045534801561001557600080fd5b50604051602080610a7383398101806040528101908080519060200190929190505050336000806101000a81548173ffffffffffffffffffffffffffffffffffffffff021916908373ffffffffffffffffffffffffffffffffffffffff16021790555060008114151561008a57806001819055505b506109d98061009a6000396000f3006080604052600436106100c5576000357c0100000000000000000000000000000000000000000000000000000000900463ffffffff1680630a50e361146100c75780632ca8c6d3146100de5780632e5b21681461010957806341c0e1b5146101345780634471408a1461014b578063478c4e0e146101a65780634b114691146101bd5780636ca3fc3b1461021b5780637365870b146102485780638da5cb5b146102685780639619367d146102bf578063f71d96cb146102ea578063fe5e185314610357575b005b3480156100d357600080fd5b506100dc610382565b005b3480156100ea57600080fd5b506100f36103a2565b6040518082815260200191505060405180910390f35b34801561011557600080fd5b5061011e6103a8565b6040518082815260200191505060405180910390f35b34801561014057600080fd5b506101496103ae565b005b34801561015757600080fd5b5061018c600480360381019080803573ffffffffffffffffffffffffffffffffffffffff16906020019092919050505061043f565b604051808215151515815260200191505060405180910390f35b3480156101b257600080fd5b506101bb6104e2565b005b3480156101c957600080fd5b506101fe600480360381019080803573ffffffffffffffffffffffffffffffffffffffff1690602001909291905050506104e4565b604051808381526020018281526020019250505060405180910390f35b34801561022757600080fd5b5061024660048036038101908080359060200190929190505050610508565b005b61026660048036038101908080359060200190929190505050610757565b005b34801561027457600080fd5b5061027d6108c9565b604051808273ffffffffffffffffffffffffffffffffffffffff1673ffffffffffffffffffffffffffffffffffffffff16815260200191505060405180910390f35b3480156102cb57600080fd5b506102d46108ee565b6040518082815260200191505060405180910390f35b3480156102f657600080fd5b50610315600480360381019080803590602001909291905050506108f4565b604051808273ffffffffffffffffffffffffffffffffffffffff1673ffffffffffffffffffffffffffffffffffffffff16815260200191505060405180910390f35b34801561036357600080fd5b5061036c610932565b6040518082815260200191505060405180910390f35b60006001600a4381151561039257fe5b0601905061039f81610508565b50565b60035481565b60045481565b6000809054906101000a900473ffffffffffffffffffffffffffffffffffffffff1673ffffffffffffffffffffffffffffffffffffffff163373ffffffffffffffffffffffffffffffffffffffff16141561043d576000809054906101000a900473ffffffffffffffffffffffffffffffffffffffff1673ffffffffffffffffffffffffffffffffffffffff16ff5b565b600080600090505b6005805490508110156104d7578273ffffffffffffffffffffffffffffffffffffffff1660058281548110151561047a57fe5b9060005260206000200160009054906101000a900473ffffffffffffffffffffffffffffffffffffffff1673ffffffffffffffffffffffffffffffffffffffff1614156104ca57600191506104dc565b8080600101915050610447565b600091505b50919050565b565b60066020528060005260406000206000915090508060000154908060010154905082565b610510610938565b6000806000806000809450600093505b6005805490508410156106615760058481548110151561053c57fe5b9060005260206000200160009054906101000a900473ffffffffffffffffffffffffffffffffffffffff16925086600660008573ffffffffffffffffffffffffffffffffffffffff1673ffffffffffffffffffffffffffffffffffffffff168152602001908152602001600020600101541415610602578286866064811015156105c257fe5b602002019073ffffffffffffffffffffffffffffffffffffffff16908173ffffffffffffffffffffffffffffffffffffffff168152505084806001019550505b600660008473ffffffffffffffffffffffffffffffffffffffff1673ffffffffffffffffffffffffffffffffffffffff168152602001908152602001600020600080820160009055600182016000905550508380600101945050610520565b6000600581610670919061095c565b50606460025481151561067f57fe5b049150600090505b8481101561073e57600073ffffffffffffffffffffffffffffffffffffffff1686826064811015156106b557fe5b602002015173ffffffffffffffffffffffffffffffffffffffff161415156107315785816064811015156106e557fe5b602002015173ffffffffffffffffffffffffffffffffffffffff166108fc839081150290604051600060405180830381858888f1935050505015801561072f573d6000803e3d6000fd5b505b8080600101915050610687565b6000600281905550600060038190555050505050505050565b6107603361043f565b15151561076c57600080fd5b6001811015801561077e5750600a8111155b151561078957600080fd5b600154341015151561079a57600080fd5b34600660003373ffffffffffffffffffffffffffffffffffffffff1673ffffffffffffffffffffffffffffffffffffffff1681526020019081526020016000206000018190555080600660003373ffffffffffffffffffffffffffffffffffffffff1673ffffffffffffffffffffffffffffffffffffffff1681526020019081526020016000206001018190555060036000815480929190600101919050555060053390806001815401808255809150509060018203906000526020600020016000909192909190916101000a81548173ffffffffffffffffffffffffffffffffffffffff021916908373ffffffffffffffffffffffffffffffffffffffff16021790555050346002600082825401925050819055506004546003541015156108c6576108c5610382565b5b50565b6000809054906101000a900473ffffffffffffffffffffffffffffffffffffffff1681565b60015481565b60058181548110151561090357fe5b906000526020600020016000915054906101000a900473ffffffffffffffffffffffffffffffffffffffff1681565b60025481565b610c8060405190810160405280606490602082028038833980820191505090505090565b815481835581811115610983578183600052602060002091820191016109829190610988565b5b505050565b6109aa91905b808211156109a657600081600090555060010161098e565b5090565b905600a165627a7a72305820e12562589ba4be4b9078ac1efb60ab345b57c64eb027ef75bb9d567f9218c3530029",
  "source": "pragma solidity ^0.4.21;\n\n\ncontract Casino {\n   address public owner;\n   uint256 public minBet;\n   uint256 public totalBet;\n   uint256 public numberOfBets;\n   uint256 public maxBet = 100;\n   address[] public players;\n\n   struct Player {\n       uint256 amountBet;\n       uint256 numberSelected;\n   }\n\n   // The address of the player and => the user info   \n   mapping(address => Player) public playerInfo;\n\n   // Fallback function in case someone sends ether to the contract so it doesn't get lost\n   function() public payable {}\n\n\n   function Casino(uint256 _minBet) public {\n      owner = msg.sender;\n      if (_minBet != 0)\n      minBet = _minBet;\n   }\n\n   function kill() public {\n      if (msg.sender == owner)\n        selfdestruct(owner);\n   }\n\n   function checkPlayer(address player) public constant returns(bool) {\n      for (uint256 i = 0; i < players.length; i++) {\n         if (players[i] == player) \n         return true;\n      }\n      return false;\n   }\n\n   function resetData() {\n        \n    }\n\n    // To bet for a number between 1 and 10\n   function bet(uint256 numberSelected) public payable {\n       require(!checkPlayer(msg.sender));\n       require(numberSelected >= 1 && numberSelected <= 10);\n       require(msg.value >= minBet);\n\n       playerInfo[msg.sender].amountBet = msg.value;\n       playerInfo[msg.sender].numberSelected = numberSelected;\n       numberOfBets++;\n       players.push(msg.sender);\n       totalBet += msg.value;\n       if (numberOfBets >= maxBet)\n       generateNumberWinner();\n   }\n\n   // Generates a number between 1 and 10 that will be the winner\n   function generateNumberWinner() public {\n       // This isn't secure due to block number visibility\n      uint256 numberGenerated = block.number % 10 + 1; \n      distributePrizes(numberGenerated);\n   }\n\n   // Sends the corresponding ether to each winner depending on the total bets\n   function distributePrizes(uint256 numberWinner) public {\n       // We have to create a temporary in memory array with fixed size\n      address[100] memory winners; \n      // This is the count for the array of winners\n      uint256 count = 0; \n\n      for (uint256 i = 0; i < players.length; i++) {\n         address playerAddress = players[i];\n         if (playerInfo[playerAddress].numberSelected == numberWinner) {\n            winners[count] = playerAddress;\n            count++;\n         }\n         // Delete all the players\n         delete playerInfo[playerAddress]; \n      }\n    \n\n      // Delete all the players array\n        players.length = 0; \n      // How much each winner gets\n      uint256 winnerEtherAmount = totalBet / winners.length;\n      \n\n      for (uint256 j = 0; j < count; j++) {\n        // Check that the address in this fixed array is not empty\n         if (winners[j] != address(0)) \n         winners[j].transfer(winnerEtherAmount);\n      }\n      totalBet = 0;\n      numberOfBets = 0;\n   }\n}\n\n",
  "sourcePath": "/Users/asofianeguerfi/Desktop/gitlab/casino_Ether_dapp/contracts/Casino.sol",
  "compiler": {
    "name": "solc",
    "version": "0.4.23+commit.124ca40d.Emscripten.clang"
  },
  "schemaVersion": "2.0.0",
  "updatedAt": "2018-05-12T19:14:41.307Z"
}